:100000000C94D3040C941A050C941A050C941A053C
:100010000C941A050C941A050C941A050C941A05E4
:100020000C941A050C941A050C945C280C94302935
:100030000C941A050C941A050C941A050C941A05C4
:100040000C941A050C94B0230C941A050C941A0500
:100050000C941A050C94CD1F0C941A050C941A05D7
:100060000C941A050C941A050C941A050C941A0594
:100070000C941A050C941A050C941A050C941A0584
:100080000C941A050C941A050C941A050C941A0574
:100090000C941A050C941A050C941A050C941A0564
:1000A0000C941A050C941A050C941A0502E2023DF0
:1000B00003E2033D0002E002E2024C03E003E2033C
:1000C0004C0002E07603E00002E06303E00002E09F
:1000D0006103E000656E74657220796F757220654A
:1000E0006D61696C2068657265206F6E206C696E49
:1000F00065203939206F66206B65796D61702E63DC
:100100002066696C650029001E001F002000210088
:100110002200230024002500260027002D002E00A9
:100120002A002B0014001A000800150017001C00FC
:1001300018000C00120013002F0030003100015194
:1001400004001600070009000A000B000D000E0055
:100150000F00330034002800AE00E1001D001B003A
:1001600006001900050011001000360037003800A5
:10017000E10068000000E000E300E20000002C0065
:100180000000000000000151E6003900E4006900B1
:10019000000035003A003B003C003D003E003F00BF
:1001A000400041004200430044004500005C010063
:1001B00001005200010001000100010001000100E6
:1001C000010001004A004B004600010050005100B0
:1001D0004F000100010001000100010002534D0029
:1001E0004E000100A8000100C25CC45CC35CC95C95
:1001F000C55CC75C0100010049004C0001000A5DBC
:100200000000010001000E5D000001000000000080
:1002100000000100010001000100085D0000010074
:1002200001000100010001000100010001000100C6
:1002300001000100010001000100010001000100B6
:1002400001000100010001000100010001000100A6
:100250000100010001000100010001000100010096
:100260000100010001000100010001000100010086
:1002700001000100C25CC35C03510451055101003F
:100280000100010001000100010001000000010067
:10029000010001000000010000000000000001005A
:1002A0000100010001000100000001000100010047
:1002B0000100010001000100010001000100010036
:1002C0000100010001000100010001000100010026
:1002D0000100010001000100010001000100010016
:1002E0000100010001000100010001000100010006
:1002F00001000100010001000100010001000100F6
:1003000001000100010001000100010001000100E5
:1003100001000100010001000000010001000100D6
:1003200000000100000000000000010001000100C9
:1003300001000100000001000100010001000100B6
:1003400001000100010001000100010001000100A5
:100350000100010001000100010001000100010095
:100360000100010001000100010001000100010085
:100370000100010001000100010001000100010075
:100380000100010001000100010001000100010065
:100390000100010001000100010001000100010055
:1003A0000100010000000100010001000000010047
:1003B0000000000000000100010001000100010038
:1003C0000000010001000100010001000100010026
:1003D0000100010001000100010001000100010015
:1003E0000100010001000100010001000100010005
:1003F00001000100010001000100010001000100F5
:1004000001000100010001000100010001000100E4
:1004100001000100010001000100010001000100D4
:1004200001000100010001000100010001000100C4
:1004300000000100010001000000010000000000B8
:1004400000000100010001000100010000000000A7
:100450000000000000002A2B28000000000000001F
:1004600000000000000000000029000000002C1E19
:100470003420212224342627252E362D3738271ED6
:100480001F202122232425263333362E37381F04FC
:1004900005060708090A0B0C0D0E0F101112131494
:1004A00015161718191A1B1C1D2F3130232D350452
:1004B00005060708090A0B0C0D0E0F101112131474
:1004C00015161718191A1B1C1D2F3130354C00003A
:1004D000000000000000000000000000000000001C
:1004E000000000000000000000000000000000000C
:1004F00000000000000000000000000000000000FC
:1005000000000000000000000000000000000000EB
:1005100000000000000000000000000000000000DB
:1005200000000000000000000000000000000000CB
:1005300000000000000000000000000000000000BB
:1005400000000000000000000000000000000000AB
:10055000000000000000000000000000000000009B
:10056000000000000000000000000000000000018A
:100570000101010101000101010100000000000072
:100580000000000000000000010001000101010165
:10059000010101010101010101010101010101014B
:1005A0000101010101010101010000000101000040
:1005B000000000000000000000000000000000003B
:1005C0000000000000000000000101010100000423
:1005D0007F3F1F643214643214783C1E1E140A05D7
:1005E0002223252628292A2C2D2F30323335363840
:1005F0003A3B3D3E4042434547494A4C4E50515399
:100600005557595A5C5E6062646668696B6D6F71BC
:10061000737577797B7D7F81838587898A8C8E90BE
:10062000929496989A9C9E9FA1A3A5A7A8AAACAEC7
:10063000AFB1B3B4B6B8B9BBBCBEBFC1C2C3C5C607
:10064000C7C9CACBCCCDCED0D1D2D2D3D4D5D6D7B0
:10065000D7D8D9D9DADADBDBDBDCDCDCDCDCDDDDEE
:10066000DDDDDCDCDCDCDCDBDBDBDADAD9D9D8D7DE
:10067000D7D6D5D4D3D2D2D1D0CECDCCCBCAC9C780
:10068000C6C5C3C2C1BFBEBCBBB9B8B6B4B3B1AFB7
:10069000AEACAAA8A7A5A3A19F9E9C9A9896949257
:1006A000908E8C8A89878583817F7D7B797775732E
:1006B000716F6D6B6968666462605E5C5A5957550C
:1006C0005351504E4C4A4947454342403E3D3B3AC8
:1006D0003836353332302F2D2C2A2928262523224F
:1006E000FFAA7F5540000101010101010101010242
:1006F00002020202020202020303030303030303D2
:10070000040404040404040505050505060606069C
:1007100006070707070708080808090909090A0A58
:100720000A0B0B0B0C0C0C0D0D0D0E0E0E0F0F0FFC
:100730001010111111121213131414151516161787
:1007400017181819191A1A1B1B1C1D1D1E1E1F20F5
:1007500020212222232424252626272829292A2B42
:100760002C2D2D2E2F303132323334353637383967
:100770003A3B3C3D3E3F4041424344454647484961
:100780004A4C4D4E4F50515354555658595A5B5D33
:100790005E5F616264656668696B6C6D6F707273D1
:1007A0007577787A7B7D7E8082838587888A8C8E38
:1007B0008F91939596989A9C9EA0A2A3A5A7A9AB6A
:1007C000ADAFB1B3B5B7BABCBEC0C2C4C6C9CBCD5C
:1007D000CFD1D4D6D8DBDDDFE2E4E7E9EBEEF0F30E
:1007E000F5F8FAFDFF000000000000000000000026
:1007F000010204060A0F17202C3A4A5D71879DB347
:10080000C7DAE9F5FCFFFCF5E9DAC7B39D87715D4E
:100810004A3A2C20170F0A060402010000000000CB
:1008200000000000000403300000001203420053E7
:1008300000200042006F006100720064000000149C
:100840000342005300200042006F00610072006408
:1008500000730000000403090409023B00020100C8
:10086000A0FA09040000010301010009211101009F
:10087000012240000705810308000A090401000164
:100880000300000009211101000122C000070582B8
:100890000320000A1201100100000008EDFE606054
:1008A00001000102030105010902A10185020901FC
:1008B000A1000509190129051500250195057501F6
:1008C0008102950175038101050109300931158106
:1008D000257F95027508810609381581257F9501C8
:1008E00075088106050C0A38021581257F9501756A
:1008F000088106C0C005010980A10185031A810095
:100900002A8300160100260300950175108100C09E
:10091000050C0901A10185041A01002A9C02160197
:1009200000269C02950175108100C005010906A1F1
:10093000018505050719E029E715002501950875CA
:100940000181020507190029EF1500250195F075B1
:100950000181020508190129059505750191029586
:100960000175039101C005010906A101050719E000
:1009700029E7150025019508750181029501750883
:1009800081010507190029FF150026FF009506754E
:100990000881000508190129059505750191029541
:1009A0000175039101C011241FBECFEFDAE0DEBF55
:1009B000CDBF04B603FE27C080913C0390913D0358
:1009C000A0913E03B0913F038730904BA740B04BBE
:1009D000D1F410923C0310923D0310923E0310920A
:1009E0003F0314BE84B7877F84BF0FB6F894A895E1
:1009F00080916000886180936000109260000FBE5B
:100A0000E0E0F8E3099511E0A0E0B1E0E8E8F7E5FF
:100A100002C005900D92AE3CB107D9F723E0AEECD1
:100A2000B1E001C01D92AC33B207E1F70E948B2503
:100A30000C947F2B0C9400000895089588509D45D8
:100A40008730910570F4FC01EF57F44DDB011296ED
:100A50009C910C94182B992321F084ED90E00E9436
:100A6000310681E008959923E1F38EEC90E0F7CF11
:100A70009923B9F388EC90E0F2CF992391F382ECBB
:100A800090E0EDCF992369F385EB90E0E8CF9923CF
:100A900041F38CEA90E0E3CF992319F38FE00E94B1
:100AA000D10E4FEF6FEF80E40E94A60CDACFCF9308
:100AB000C62F81112FC00E94D71B882331F08AEAEC
:100AC000C11101C089EA0E94061583E00E94D71B6C
:100AD000882321F0CC23A9F00E94A30C84E00E947B
:100AE000D71B882321F0CC2379F00E94670C85E086
:100AF0000E94D71B882371F0CC2349F0CF910C942E
:100B0000850C0E94940CEACF0E945A0CF0CFCF9132
:100B10000C94760CCF91089581E008950C941E05F5
:100B20001F93CF93DF9300D000D00F92CDB7DEB7E5
:100B300049835A836B832091F70189819A8121111E
:100B40001BC06623A9F00E94E71C182F682F89811B
:100B50009A810E94931C69817A81812F0F900F9056
:100B60000F900F900F90DF91CF911F910C94A606DC
:100B70000E94BF1C182FEFCF0E94E71C69817A8169
:100B8000EDCFFC01408151816281738184810C949D
:100B900090051F93CF93DF9390E0FC01E25BFB4F46
:100BA0001491FC01E25BFA4FD49182539B4FFC01FC
:100BB000C491DD2319F081EE0E943414CC2319F086
:100BC00086EE0E943414812F0E940615CC2319F062
:100BD00086EE0E94B014DD2331F081EEDF91CF91DB
:100BE0001F910C94B014DF91CF911F910895FF9243
:100BF0000F931F93CF93DF938C01F62EF80184910E
:100C0000882349F1E8012196813049F4FE011491CD
:100C1000812F0E943414812F0E94B01406C08230AC
:100C200089F4FE0184910E9434148E010F5F1F4FDE
:100C30008F2D815018F3EFE9FFE03197F1F700C0F5
:100C40000000F7CF833019F4FE018491E5CF0E94B4
:100C5000C905E801EACFDF91CF911F910F91FF9075
:100C6000089560E00C94F7050E942B1E811102C0CC
:100C70000E94D21E0E9476100C94B1080E948C1023
:100C80000C94B30808950C94420681E008950C94E6
:100C90004506CF93C82F0E9443068C2FCF910C940A
:100CA000470608950E94B3170E9451062FEF84E370
:100CB0009CE0215080409040E1F700C000000C947F
:100CC000F11F0F931F93CF93DF93EC010E94C10597
:100CD0008C01BE010E948E05882359F1BE01C80116
:100CE0000E943E11882329F1BE01C8010E947F1194
:100CF0008823F9F0BE01C8010E94A2128823C9F01E
:100D0000BE01C8010E94CE0F882399F08A818823F2
:100D100039F001158CE5180751F00E3D1C4579F0AE
:100D2000CE01DF91CF911F910F910C948C050E9401
:100D3000520680E0DF91CF911F910F9108950E949C
:100D4000D21EF7CF90E080E008950895972F70E0CD
:100D50002EE0929F600D711D1124FB0196E4899F86
:100D6000E00DF11D1124EE0FFF1FEA5FFE4F85918C
:100D700094910895FC01EE0FFF1FE253FA4F859105
:100D800094910895CF93DF930E94A6060E94D707FF
:100D9000EC01811520E5920708F042C0811530E48E
:100DA000930708F0BDC0883E910528F5803E910567
:100DB00008F09DC0883A910588F4853A910508F0BD
:100DC0008FC08130910509F492C0009709F48FC05B
:100DD000049708F08CC0D0E0C0E089C08F3B91053B
:100DE00008F489C0805C9109C03CD105A0F30E9441
:100DF000BA06EC017CC08115904250F4C11581E027
:100E0000D80708F074C0C03FD10528F3D0656FC083
:100E1000C11590E3D90708F079C0CE019F70E7CFE4
:100E2000811525E5920758F5811534E5930708F0FB
:100E3000A6C0811542E5940750F4C11581E5D80795
:100E400008F471C0DC2FCC27C16FD06A50C0982F36
:100E5000969596959E0123703327C115D34508F0CA
:100E60007FC0C1E0D0E002C0CC0FDD1F2A95E2F7C1
:100E700020E2929FC0011124C82BD92B6FC0C1154D
:100E800089E5D807A8F4C11598E5D90708F07CC012
:100E9000C11526E5D20708F09ECF8C2F0E946E0860
:100EA000C82FD0E0DC2FCC27CC27DF71D0621FC049
:100EB000C1153AE5D30708F46CC0CE0190568115F0
:100EC000904208F088CF8D2F8F710E946E0890E0BD
:100ED000982F882788279F719C012C2BE901E6CF4A
:100EE000C55AD0E0CF5ADE4FC881D0E0D064CE01E1
:100EF000DF91CF910895C85AD0E0CC0FDD1FCD5DB2
:100F0000DE4F0990D881C02DD464F1CFCE0199274E
:100F1000D3FF03C0EC01D86CEACFEC01D06CE7CF73
:100F2000DF70D06AE4CFCE01E4E096958795EA952C
:100F3000E1F783702C2F26952695237090E2299F48
:100F400090011124382B8C2F8370C1E0D0E002C0B7
:100F5000CC0FDD1F8A95E2F7C22BD32BDC68C7CFFD
:100F6000C1E0D0E002C0CC0FDD1F2A95E2F730E2ED
:100F7000939FC0011124C82BD92BDA68B8CFD82F82
:100F8000CC27C46FD06AB3CFDC2FCC27C06FD06A18
:100F9000AECF8C2F8F700E946E0834E0D695C79527
:100FA0003A95E1F7CF709C2FEC01D069A0CF823841
:100FB0009105B1F1B0F48133910509F475C048F49D
:100FC0008932910509F469C08A32910509F473C028
:100FD00008958533910509F459C08933910501F1CC
:100FE0000895833E9105A9F138F4803E9105F9F00A
:100FF000823E910549F10895863E9105A9F1873E0B
:101000009105C9F1843E910519F520912E0321FF28
:101010001FC080912D0384FD14C087EE90E00895D9
:1010200020912D032370A1F080EE90E0089520918F
:101030002D0320FD47C030912E0330FF09C024FF4F
:1010400044C090E080E004C020912D0322FDF7CF42
:10105000089520912D0322FD3BC030912E0330FDD9
:10106000E3CF24FFF5CFEDCF20912D0323FFF0CF69
:1010700024FDE7CFD2CF20912D0323FD2CC030914A
:101080002E0331FFEECF84EE90E0089520912D03E2
:1010900025FFDECF89E290E0089520912D0325FF02
:1010A000D7CF85E390E0089520912D0326FFD0CF80
:1010B0008AE290E0089520912D0326FFC9CF81E3B5
:1010C00090E0089589E390E0089583EE90E008951C
:1010D00082EE90E0089586EE90E0089590912D03C1
:1010E00092FF06C0282F28712830F9F4877F84608A
:1010F00093FF06C0282F28712831F1F4877E846180
:1011000020912E0320FF06C0382F38713830D9F4D3
:10111000877F816021FF06C0282F28712831D1F4F4
:10112000877E816194FD877E0895282F2471243065
:10113000F9F68B7F8860DCCF282F2471243101F7EA
:101140008B7E8861DDCF382F3171313019F78E7F7A
:101150008860E0CF282F2171213121F78E7E8861B0
:10116000E1CF0C941C050C941D05E82FF0E0EE0F68
:10117000FF1FEC53FD4F8081918108950895CF9317
:10118000DF93A2E6B1E047E651E0C1E0D0E08D9107
:10119000E82FE295EF70F0E061A18F709E0101C031
:1011A000220F8A95EAF7922F9095962391A382A118
:1011B000822B82A34A175B0751F7A4E5B1E061E0F7
:1011C00070E08D91E82FE295EF70F0E041A18F7013
:1011D0009B0101C0220F8A95EAF7922F90959423E4
:1011E00091A382A1822B82A381E0A236B80749F79E
:1011F0001092BB021092BA021092C5021092C40261
:101200001092BD021092BC021092C7021092C60248
:101210001092BF021092BE021092C9021092C80230
:101220001092C1021092C0021092CB021092CA0218
:101230001092C3021092C2021092CD021092CC0200
:1012400085E00E94BF09DF91CF910C9434065F9234
:101250006F927F928F929F92AF92BF92CF92DF92C6
:10126000EF92FF920F931F93CF93DF93AAEBB2E01D
:1012700002E611E0512CEE24E394F12C8D909C9029
:1012800011971D921D92E80189918E01E82FE29538
:10129000EF70F0E091A18F70B70101C0660F8A95E1
:1012A000EAF7892F862B81A382A1662E609486217E
:1012B00082A3D0EADA95F1F784E5C82E81E0D82E32
:1012C00030E020E0AD0142505109E60179906E0115
:1012D000872D82958F7090E0EC0188A1EA01A880AB
:1012E000B98090E0D72DDF7002C095958795DA958B
:1012F000E2F780FD41C0C701022E02C0880F991F8E
:101300000A94E2F78A299B29EA01998388832F5F4F
:101310003F4F2E303105C9F681A1D62DD823D1A358
:1013200082A1682B62A381E0FA0120813181281516
:10133000390509F480E0582AF2E0A43CBF0709F01F
:101340009DCF252D45E064EC72E08AEB92E00E948F
:10135000C0090E943E06852DDF91CF911F910F910C
:10136000FF90EF90DF90CF90BF90AF909F908F90C5
:101370007F906F905F90089590E080E0C3CF0895D4
:10138000FF920F931F93CF93DF93F82E092F162F01
:10139000D72FC42F222349F081E08093D0010E94EF
:1013A000971F9093CF018093CE018091D001882325
:1013B000A1F08091CE019091CF010E94A31F0697CA
:1013C00060F0EF2DF02FA12FBD2F90E080E0D0E056
:1013D0008C179D0744F01092D001DF91CF911F919F
:1013E0000F91FF900895219131912D933D93019696
:1013F000EFCFAF92BF92CF92DF92FF920F931F93E6
:10140000CF93DF93362F472FE82FF0E0EB51F94FC2
:1014100071110DC06491762F862FDF91CF911F91AE
:101420000F91FF90DF90CF90BF90AF900895C72F9E
:10143000D0E02491F22E022F10E056E0659FC0010B
:101440001124EFEFF0E0BF010E94F02A832F90E01B
:10145000880F991F35E5369FD001379FB00D1124B5
:101460008A1B9B0B982F990F980F6F01CC1ADD0ADE
:10147000C09ED001C19EB00DD09EB00D11248B2F07
:10148000949FA0011124452F55276F01C41AD50A36
:10149000C09EA001C19E500DD09E500D11245F0131
:1014A000A91AB108AC9E6001AD9ED00CBC9ED00CB8
:1014B0001124CD2CDD24EC19FD09E09FE001E19F12
:1014C000D00DF09FD00D1124ED2F62307105A1F0E9
:1014D00048F46115710569F06130710589F0EB2FF1
:1014E000852F07C06430710571F088F06630710592
:1014F000B1F76E2F722F91CFE22F2B2F8D2FF9CFB7
:10150000E22F252FF6CFEB2F822F2D2FF2CF2B2F6F
:101510008F2DE52FEECF0895CF93DF93762FE9013E
:10152000682F842F0E94F909798368838A83DF9169
:10153000CF910895493C08F048EC0C948C0A8091B6
:10154000CE02982F9E7F61F4817082608093CE02DC
:101550008091D102893C18F088EC8093D1020895E3
:101560008A34B0F381708864F1CF88E090E00C9405
:101570003F2BCF92DF92EF92FF926B017C010E9492
:101580009F0AB701A60188E090E0FF90EF90DF90FE
:10159000CF900C945D2BEEECF2E083E0808311821F
:1015A0008FEF828388EC83831482608171818281D2
:1015B00093810C94B90A8091CE0280FF02C0869577
:1015C000089580E008958091D202833018F48F5FEF
:1015D0008093D2026091CE027091CF028091D002AE
:1015E0009091D1020C94B90A8091D202882319F00B
:1015F00081508093D2026091CE027091CF0280918F
:10160000D0029091D1020C94B90A6091040170E06B
:101610008091CE0280FF0AC08091D50123E0829F95
:10162000C00111248D529D4F0C9471108091D401F2
:101630009091030123E0829FF0011124ED52FD4FB0
:10164000891750F71182108212828F5F3396F8CF7C
:101650009091CE0290FF14C09091D401209103018B
:1016600033E0939FF0011124ED52FD4F921710F0DB
:101670000C94050B8183608342839F5F3396F6CF82
:101680000895CF93DF9300D00F92CDB7DEB790913E
:10169000CE0290FF0AC09E012F5F3F4F0E949A0A20
:1016A0004B8169818A810E94280B0F900F900F90C7
:1016B000DF91CF910895CF93DF93EC01EC81F0E0BF
:1016C000E052FA4F4491EEECF2E0628181810E9497
:1016D000410B8C818F5F8C83DF91CF910895CF93E5
:1016E000DF93EC01EEECF2E0438162818C810E9499
:1016F000410B8C818F5F8C83DF91CF9108950F9385
:101700001F93CF93DF9300D00F92CDB7DEB78C013C
:101710008091D10181110AC09E012F5F3F4F48EC9B
:101720006FEF0E949A0A8A818093D101F801648147
:10173000613069F08091D10140E0662361F040E0C2
:10174000623011F44091D10180E060E004C060910A
:10175000D10140E080E00E94280BF801848190E0F4
:10176000019663E070E00E94042B84830F900F9039
:101770000F90DF91CF911F910F910895AF92BF927B
:10178000CF92DF92EF92FF920F931F93CF93DF934D
:1017900000D00F92CDB7DEB7182FF62E042FE22E11
:1017A0009091CE0290FF29C0E92FE695AE2FB0E0D0
:1017B000A959BE4F8C918093DD019E7F923059F5DF
:1017C0009E012F5F3F4F812F0E949A0A4B816981B2
:1017D0008A810E94280B1093CF02F092D0020093CE
:1017E000D102EE2051F06091CE027091CF02809133
:1017F000D0029091D1020E94B90A0F900F900F90E1
:10180000DF91CF911F910F91FF90EF90DF90CF90DC
:10181000BF90AF900895823019F40091D102DBCFD0
:10182000863019F41091CF02D6CF8930D9F389319F
:1018300091F6E9518E2F8170D82EE695F0E0E052B6
:10184000F94FA590B490C12CBB2460910201C6163B
:1018500018F00E94050BBFCF2C2D30E0A29EC001D6
:10186000A39E900DB29E900D112470E00E94F02A6C
:10187000812FD11013C0860F4091D401420F532FF6
:10188000511D9A01220F331F240F351F2D523D4F3A
:10189000402F6F2D0E949A0AC394D7CF861BECCF9E
:1018A000EEECF2E09181282F4381628188E0890F7C
:1018B0000C94BE0B81E00C94500CEEECF2E09181A4
:1018C000282F4381628188EF890F0C94BE0B81E041
:1018D0000C945D0CEEECF2E0628121E1620F08F401
:1018E0006FEF282F438181810C94BE0B81E00C9413
:1018F0006A0CEEECF2E0628121E1621B08F460E028
:10190000282F438181810C94BE0B81E00C94790CCB
:10191000EEECF2E0438121E1420F08F44FEF282F73
:10192000628181810C94BE0B81E00C94880CEEECFA
:10193000F2E0438121E1421B08F440E0282F62815C
:1019400081810C94BE0B81E00C94970C21E00C94E7
:10195000BE0B20E00C94BE0BEF92FF921F93CF932F
:10196000DF93EC0110E0EE24EA94F12C6091020187
:10197000161770F00E94050B9A818C8190FF27C08A
:101980008F5F8C83DF91CF911F91FF90EF9008952F
:101990002091D401422F410F5527551FCA019A01AA
:1019A000220F331F280F391F2D523D4F70E0C70102
:1019B0000E94042B962F8C814091D1026091D0021D
:1019C000199F800D11240E949A0A1F5FCFCF81506A
:1019D000D8CFAF92BF92CF92DF92EF92FF920F9348
:1019E0001F93CF93DF93FC0182810FEF80FF01E013
:1019F00010E04CE1A42E809102011817C8F00E945B
:101A0000050B8091D301013009F055C0811102C04E
:101A10008091020181508093D301DF91CF911F917A
:101A20000F91FF90EF90DF90CF90BF90AF9008950F
:101A3000C091D401C12ED12CCC0DDD2DD11DCE01F4
:101A4000880F991FC80FD91FCD52DD4F19821882F8
:101A50001A8234E0E32EF12CB12C8091D3018B0D4E
:101A60008D311CF16A2D0E94E22A892F082E000C6C
:101A7000990BC816D90691F48091D1028E9DA001D0
:101A80008F9D500D112455954795559547959E016D
:101A90006091D0028091CF020E949A0AB00EF1E0CC
:101AA000EF1AF108D1F61F5FA6CF87FFDFCF909125
:101AB0000201890FDBCF90E001966091020170E096
:101AC0000E94042BA8CF0F931F93CF93DF93809195
:101AD000D4019091030123E0829FF0011124ED5283
:101AE000FD4F891740F1C0E0D3E060910201C617B5
:101AF00040F10E94050B209100018091D201820FDC
:101B00008093D20190910101920F909301011916D7
:101B100054F4082E000C990B409102014150550BD2
:101B2000841795071CF0219520930001DF91CF9138
:101B30001F910F9108951182108212828F5F339648
:101B4000D0CF0C2F10E070E0C8010E94042B209130
:101B5000D401820F482F50E02091D201022E000CB8
:101B6000330B02171307BCF020910101022E000C69
:101B7000330B201731077CF08D9F900111242D52DB
:101B80003D4F4091D1026091D0028091CF020E94DE
:101B90009A0ACF5FAACFFA01EE0FFF1FE40FF51FDD
:101BA000ED52FD4F118210821282F3CF0F931F93DB
:101BB000CF93DF938C01FC01848195810196817024
:101BC000992795838483C0E0D5E580910201C817E9
:101BD00030F0DF91CF911F910F910C94050B209164
:101BE000D401422F4C0F5527551FCA019A01220FCD
:101BF000331F280F391F2D523D4F8C2F8695F8012A
:101C000044815581840F952F911D81704091D1029F
:101C10006091D0028D9F802D11240E949A0ACF5F7F
:101C2000D4CF0F931F93CF93DF93EC0110E000E02C
:101C3000909102019017110609F06CF40E94050BB7
:101C40008C8190E00196817099278C83DF91CF91F0
:101C50001F910F9108952091D401A801420F511DA9
:101C60009A01220F331F240F351F2D523D4F4C81F7
:101C70006091D0028091CF0296959017110651F095
:101C80004CF0442349F04091D1020E949A0A0F5F20
:101C90001F4FCECF4423B9F340E0F7CFEEECF2E094
:101CA00080818E7F808360817181828193810E9497
:101CB000B90A1092DE012FEF80E792E021508040B8
:101CC0009040E1F700C000000C94050B6091CE023B
:101CD000669570E04BE050E085E091E00E942A2B91
:101CE000892B19F481E08093DE010E94971F909365
:101CF000D7018093D60108959091CE0290FF35C010
:101D00009170811128C092609093CE02662351F0A9
:101D10006091CE027091CF028091D0029091D10259
:101D20000E94B90A6091CE02669570E04BE050E0E7
:101D300085E091E00E942A2B892BA1F01092DE0110
:101D400081E08093D9014091D1026091D0028091CD
:101D5000CF020C94A90C853210F09864D5CF880F6F
:101D6000982BD2CF0E94660EEBCF0895682F9091EA
:101D7000CE02969581E0890F853208F081E00C94BF
:101D80007C0E81E00C94B60E682F9091CE02969551
:101D90008FEF890F09F484E20C947C0E81E00C949F
:101DA000C40E61E00C947C0EEEECF2E08081816068
:101DB000808386950C94D10E8091CE0280FD0C9488
:101DC0004E0E0C94D40E60E00C947C0E8091DC01DD
:101DD00081112EC00E942B1E811104C00E94D21EB0
:101DE0000E94CB0A0E94B50A6093CE027093CF0284
:101DF0008093D0029093D1026E7F61F40E94CB0A4F
:101E00000E94B50A6093CE027093CF028093D002F5
:101E10009093D1020E949F0A1092DE018091CE021F
:101E200080FF03C086950E94E30E81E08093DC0171
:101E300008950F931F93CF93DF938091DE01882342
:101E400009F48DC08091DD01E091CE02E695E81B9A
:101E5000E093D8018230C9F5F0E0E452FA4FE49102
:101E6000CE2FD0E00BE51BE08091D901882389F0CB
:101E70001092D9010E94971F9E0120953095820FE4
:101E8000931F9093D7018093D6011092DB0110929B
:101E9000DA018091D6019091D7010E94A31F8C177F
:101EA0009D0708F45CC0E091D601F091D701CE0FF8
:101EB000DF1FD093D701C093D60186ED91E0F801E2
:101EC000DF91CF911F910F910994863049F4F0E092
:101ED000E752FA4FE491CE2FD0E00FE61BE0C4CFDB
:101EE000893051F4E695F0E0EA52FA4FE491CE2FB2
:101EF000D0E00CEA1CE0B8CF8F3051F4E695F0E06A
:101F0000ED52FA4FE491CE2FD0E009EE1CE0ACCFB9
:101F1000853149F4F0E0E053FA4FE491CE2FD0E060
:101F200003E61DE0A1CFC8EED3E006ED1DE0883149
:101F300009F49ACF833239F4EEECF5E0C591D491EF
:101F40000FE71BE091CFC4EFD1E001E11EE0843246
:101F500009F48ACFC0EDD7E00BE81AE085CFDF9116
:101F6000CF911F910F910895FA01811101C0FB01DA
:101F70000994CF93DF93C82FD62F0E94DB0A8C17CA
:101F800040F00E94DB0A8D1720F4DF91CF910C9472
:101F9000C10E8C2FDF91CF910C94D10E0F931F9314
:101FA000CF938C01FB01C281CC2309F465C00E9450
:101FB0007C1D8272F801E25CFC45E431F10538F4E5
:101FC000E857F44D0C94182B0E94DC0EC0E08C2FC7
:101FD000CF911F910F9108954EEC5EE061EC7EE091
:101FE0000E94B40FF3CF41EC5EE06EEC7EE0F8CFE0
:101FF00047E65CE06AE57CE0F3CF4AE55CE067E653
:102000007CE0EECF45E85CE066E77CE0E9CF46E7C0
:102010005CE065E87CE0E4CF43EA5CE064E97CE016
:10202000DFCF44E95CE063EA7CE0DACF44EF5AE0DA
:1020300063EE7AE0D5CF43EE5AE064EF7AE0D0CF9A
:1020400081E00E94D10EC2CF65E082E00E94B90F0C
:10205000BDCF68E086E0FACF6EE089E0F7CF64E1BB
:102060008FE0F4CF67E185E1F1CF88E1EACF62E26A
:1020700089E1ECCF83E2E5CFC1E0A9CF3EB1242FC7
:10208000209523233EB1432B3FB7F894680F791F67
:102090008617970711F43FBF0895FC015191CF01B6
:1020A000E8E04EB9000000C057FF2EB9550F000000
:1020B00000C000C000C02EB900C0EA9591F7E8CF7B
:1020C0002DB1242B2DB99B01220F331F620F731FDB
:1020D0000E943E1087EC90E00197F1F700C00000ED
:1020E000089540E40C9460100C9457053E98469A6D
:1020F00057985F9A86B186FB882780F929B130E02E
:10210000220F232F221F330B90E0232B09F092E0A4
:10211000892B8093E1010895E091E101EE0FEE0F2C
:10212000E093E10186B186FB222720F989B190E096
:10213000880F892F881F990B009711F082E090E09B
:10214000822BE82BE093E101EF70F0E0E457FE4FC3
:1021500080819091E001890F8093E00184304CF000
:102160008091DF018F5F8093DF0161E080E00E945A
:1021700074108091E0018D3F4CF48091DF0181501B
:102180008093DF0160E080E00E9474108091E001A4
:10219000837887FF03C081508C6F8F5F8093E0014D
:1021A00008950F931F93CF93DF93C62FD42F022F41
:1021B000FC0182818823C9F06093E4010E94971F8B
:1021C0009093E3018093E20180E28C0F883008F065
:1021D00050C0C77081E001C0880FCA95EAF7DF914F
:1021E000CF911F910F910C9419151091E4011613C2
:1021F00035C08091E2019091E3010E94A31F883CC9
:10220000910560F5C0E2CD0F1D17B9F080E2810F96
:10221000883040F4177081E001C0880F1A95EAF702
:102220000E942015C83048F481E09D2F977001C0AE
:10223000880F9A95EAF70E941915802F0E940615BB
:10224000C830B8F4D77081E001C0880FDA95EAF79A
:10225000DF91CF911F910F910C94201580E28C0F8C
:10226000883038F4C77081E001C0880FCA95EAF75A
:10227000EFCFDF91CF911F910F9108959C01CB017A
:10228000233F4CE5340731F190F4283DFCE53F074E
:10229000E9F0293D4CE5340769F1273D3C4579F4E7
:1022A00026E241EE61EE0E94D11080E00895253FC4
:1022B000FCE53F07B9F090F0263F3C45B9F0FC0142
:1022C00082818823D1F01092E401089527E245EE3F
:1022D00065EEE9CF26E241EE60EEE5CF27E245EE7E
:1022E00064EEE1CF26E241EE62EEDDCF27E245EE7D
:1022F00066EED9CF28E241E0EBCF81E00895CF939D
:10230000DF93EC01FB018281882309F419C1C230FB
:10231000FCE5DF07C0F1C6319CE5D90730F09E012E
:102320002A5F3C452930310570F50E94481E909384
:102330002E0380932D03C031ECE5DE0709F4CFC0F6
:1023400008F05BC0C8308CE5D80709F4B6C088F542
:10235000C430ECE5DE0709F4A8C0C0F4C2308CE557
:10236000D80709F49CC080912D038260C330DC45FE
:1023700009F498C080912D0390912E030E94561E5F
:102380000E94B31780E0DF91CF91089580912D03D3
:102390008061C630ECE5DE0709F484C080912D032E
:1023A0008860C730DC4508F47DC080912D038062D1
:1023B00079C0CC308CE5D80709F489C070F48091DD
:1023C0002D038C60CA30ECE5DE0709F46BC008F41D
:1023D00078C080912D038E7F65C0CE308CE5D80704
:1023E00009F479C080912D038B7FCF30DC4508F450
:1023F00059C080912D038F7E55C0CB3FECE5DE07A1
:1024000009F457C030F5C3318CE5D80709F46FC023
:1024100078F4C131ECE5DE0709F465C0C231DC4572
:1024200009F0A8CF0E94B31780912D038F773AC08F
:10243000C5318CE5D80709F462C008F476C08091F4
:102440002E038160CA3FDC4509F094CF80932E03B0
:1024500091CFCF3FFCE5DF0709F44DC088F48091B0
:102460002E038D7FCD3F9CE5D90781F380912E030C
:102470008E7FCE3FDC4550F380912E038360E6CF04
:10248000C130FDE5DF0709F459C008F444C080E01D
:10249000C230DD4509F06ECF0E94D41E6BCF809113
:1024A0002D03816080932D0365CF80912D0384607F
:1024B000F9CF80912E038260C9CF80912D03806473
:1024C000F1CF0E94B31780912D038068EBCF8091EC
:1024D0002D038D7FE7CF80912D03877FE3CF809100
:1024E0002D038F7DDFCF80912D038F7BDBCF8091FC
:1024F0002D03837FD7CF80912E038C7FA7CF809130
:102500002D0382FB992790F921E0922790FB82F915
:1025100090FB83F9C7CF80912E03982F90959170EF
:102520008E7F892B90FB81F991CF0E94B3179091F8
:102530002D03892F97FB87F98058B4CF81E0ACCF6A
:1025400081E021CFCF93DF93EB0186319C4511F5DC
:102550000E947C1D9A81992399F08A7A91E009F46E
:1025600090E09093E501811109C089E20E94571D16
:102570000E94C81D80E0DF91CF91089585E3F6CFDA
:102580008091E501811104C089E20E945E1DF0CFB7
:1025900085E3FBCF81E0EFCF9093EB018093EA01DD
:1025A0000895E091EA01F091EB01309721F001905C
:1025B000F081E02D099480E00895E091EA01F09126
:1025C000EB01309799F020912201222359F02091BC
:1025D0002D0327FF07C0DC012C9111962C93119736
:1025E00025E02C930280F381E02D09940895E09179
:1025F000EA01F091EB01309739F022E0DC012C93F5
:102600000480F581E02D099408952091E80130912E
:10261000E9012817390771F09093E9018093E801E7
:10262000E091EA01F091EB01309721F00680F7810B
:10263000E02D099408952091E6013091E7012817D3
:10264000390771F09093E7018093E601E091EA0188
:10265000F091EB01309721F00084F185E02D099491
:10266000089585B7806885BF85B7806885BF089560
:10267000089508950C94381308950C943C130E9407
:1026800031130E9439130C943A1381E008950E948B
:102690008E1F0E94BF080E9460200E94E60E0C94CC
:1026A0003D137F928F929F92AF92BF92CF92DF9213
:1026B000EF92FF920F931F93CF93DF93CDB7DEB7C7
:1026C0002A970FB6F894DEBF0FBECDBF0E94270930
:1026D0000E944513882309F473C04DEEA42E41E0F7
:1026E000B42E10E000E0702E802F0E94B5086C011F
:1026F000F501819091905F018816990609F45AC0FE
:1027000080918A0281FD0E94BE0880E0EE24E3945D
:10271000F12C8C249D2494012E213F21232B09F49C
:1027200043C08E837F82CE20DF2081E0CD2809F454
:1027300080E088870E94971F8160782F9A87898719
:102740004E815F8168858A850E940514000F111FE4
:10275000F801E351FE4F80819181E826F926F1824C
:10276000E0820E94190F0E94EF220E94D1129091E4
:10277000EC018917B1F10E94D1128093EC012A96E5
:102780000FB6F894DEBF0FBECDBFDF91CF911F9182
:102790000F91FF90EF90DF90CF90BF90AF909F9000
:1027A0008F907F900C9449068F5FEE0CFF1C8E304B
:1027B00009F0B1CF0F5F1F4F0530110509F093CF1E
:1027C0008FEF89838A831B820E94971F8160782FF5
:1027D0009D838C8349815A816B818D810E94051470
:1027E000C0CF2A960FB6F894DEBF0FBECDBFDF91E3
:1027F000CF911F910F91FF90EF90DF90CF90BF90FE
:10280000AF909F908F907F900895CF93DF93CDB737
:10281000DEB72B970FB6F894DEBF0FBECDBF4F8348
:10282000588769877A878B871E821D8285E0FE0123
:102830003796DE01119601900D928A95E1F7498154
:102840005A816B817C818D819E812B960FB6F89485
:10285000DEBF0FBECDBFDF91CF910C94531AFC01A8
:10286000808191810C94291D882309F478C08238D5
:10287000B9F40E94D11281FD72C089E30E94571DF4
:102880000E94C81D2FEF81EE94E0215080409040BF
:10289000E1F700C0000089E30E945E1D0C94C81D92
:1028A0008338A1F40E94D11280FD59C083E50E94B3
:1028B000571D0E94C81D2FEF81EE94E021508040EB
:1028C0009040E1F700C0000083E5E6CF8438A1F432
:1028D0000E94D11282FD43C087E40E94571D0E94CE
:1028E000C81D2FEF81EE94E0215080409040E1F729
:1028F00000C0000087E4D0CF9CEF980F913A18F405
:102900000E94571DCBCF90E2980F983050F48770FB
:1029100091E001C0990F8A95EAF7892F0E947F1DE7
:10292000BDCFEBE5E80FE33038F4F0E0E653FE4FBF
:10293000808190E00C940513E8E5E80FE73148F456
:10294000F0E0EE0FFF1FE456FE4F808191810C9462
:102950001B13803F20F00E94FD210C94E422089577
:10296000882309F452C0823871F40E94D11281FF89
:102970004CC089E30E94571D0E94C81D89E30E9434
:102980005E1D0C94C81D833859F40E94D11280FF3B
:102990003CC083E50E94571D0E94C81D83E5EFCF10
:1029A000843859F40E94D11282FF2FC087E40E941C
:1029B000571D0E94C81D87E4E2CF9CEF980F913A03
:1029C000F0F290E2980F983050F4877091E001C0D7
:1029D000990F8A95EAF7892F0E94851DD2CF9BE532
:1029E000980F933020F490E080E00C94051398E564
:1029F000980F973120F490E080E00C941B13803FF7
:102A000020F00E9465220C94E4220895CF93C82FF1
:102A10000E943414C93349F42FEF87EE93E021501C
:102A200080409040E1F700C000008C2FCF910C94C3
:102A3000B014882321F00E947F1D0C94C81D0895B6
:102A4000882321F00E94851D0C94C81D0895BF9213
:102A5000CF92DF92EF92FF920F931F93CF93DF936A
:102A60006C01D62FC72FFC01058102950F701281D2
:102A700011110E949C1D0E94751DE82E882371F083
:102A80001123B1F080E28D0F883090F082E00E9437
:102A9000131E0E94751D91E0E82EE926BC2EB2940B
:102AA0009FE0B922EB2DF0E0E456F44D0C94182B86
:102AB000E12CF4CF0C2F0F70C07F11F00295007F36
:102AC0001123A9F0002359F080E28D0F883010F017
:102AD000D11109C0802F0E947F1D0E94C81D8D2F1B
:102AE0000E94341414C0802F0E948F1DF6CF8D2FAA
:102AF0000E94B014002359F080E28D0F883010F04E
:102B0000D1112CC0802F0E94851D0E94C81D2B2D25
:102B10002850330B2430310520F40E94D1120E943A
:102B20004906EE2009F4D5C10E94711D80FDD1C176
:102B3000F60112820E946B1D0E94F71BC6010E94C3
:102B400073170E946B1DDF91CF911F910F91FF9022
:102B5000EF90DF90CF90BF900C94181C802F0E94B4
:102B6000951DD3CFFC2FFF70FF2EC07FC03219F010
:102B7000F29480EFF822DD2369F0D13049F111237E
:102B800091F1002351F1F601858180FFA8CF8F706C
:102B9000858323C0112381F0011106C00E94AF1D5F
:102BA0008F290E941915B3CF0130C1F70E94AF1DC4
:102BB0008F290E94B51DABCF011106C00E94BE1D1A
:102BC0008F2D0E942015A3CF013009F4A0CFF6CF9E
:102BD000112329F0063008F09ACF8F2DE2CF05306F
:102BE00008F095CFEDCF002359F3D93349F4FFEF27
:102BF00027EE33E0F15020403040E1F700C0000004
:102C00008D2F0E94B01483CF8C2F8695869583706C
:102C100069F0813009F07BCF8D2F9C2F93701111BB
:102C200002C090E080E00E941B1371CF8D2F9C2F7B
:102C30009370111102C090E080E00E94051367CFED
:102C4000112309F1D53F99F0D63FB9F0D43F49F4AB
:102C500080912703909128038160909328038093AB
:102C600027038D2F0E94FD210E94E42250CF8091E6
:102C70002703909128038260F0CF809127039091E1
:102C800028038460EACFD53F89F0D63FA9F0D43F2E
:102C900049F480912703909128038E7F9093280315
:102CA000809327038D2F0E946522DECF809127031A
:102CB000909128038D7FF2CF809127039091280374
:102CC0008B7FECCF8C2F837009F041C011111FCF87
:102CD0004D2F429546954770440F440F0D2F0F70AE
:102CE00010E030E020E0042E04C0000F111F221F6E
:102CF000331F0A94D2F760E070E0CB01D4FF0FC01D
:102D00006FE070E080E090E004C0660F771F881FDE
:102D1000991F4A95D2F76095709580959095C695C4
:102D2000C695C370602B712B822B932BC23049F058
:102D300058F4C13019F00E94891BE9CE0E94771B1C
:102D4000E6CE0E949B1BE3CE0E94751BE0CE8695CB
:102D5000112311F08C2F8170882309F4D8CE4D2FC8
:102D6000429546954770440F440F0D2F0F7010E0A9
:102D700030E020E0042E04C0000F111F221F331F7B
:102D80000A94D2F760E070E0CB01D4FF0FC06FE08F
:102D900070E080E090E004C0660F771F881F991FE5
:102DA0004A95D2F76095709580959095C695C69591
:102DB000C370602B712B822B932BC23049F058F4D7
:102DC000C13019F00E946E1CA2CE0E945C1C9FCEE6
:102DD0000E94801C9CCE0E94B11B99CECF70112303
:102DE00029F08C2F0E94F71B8D2FDBCE8D2F0E9498
:102DF00020158C2F0E94181C8ACED23F89F160F4D6
:102E0000D03FC9F0D13F29F1112309F442C001118B
:102E100066CE8C2F8F7121C0D33F39F1D43FA1F7FB
:102E2000112369F1CF718C2F0E94F71B63E08C2F67
:102E30000E94FE1D6CCE112341F0053008F067CED4
:102E40008C2F8F710E943B1C62CE063008F05FCE43
:102E5000F7CF8C2F8F71112369F20E94F71B57CE89
:102E60008C2F8F711123C9F3C5CF112329F08C2F1B
:102E70008F710E94E21B4BCE0E94BD1B48CE81E0A9
:102E80000E94131E023008F442CE82E00E94131EFC
:102E90003ECE002359F0D93309F0B2CE8FEF97EE32
:102EA000E3E081509040E040E1F7A8CE8C2F8F7195
:102EB000A1CF4C2F4F706D2FC6010E94A2060E9419
:102EC000ED1A25CE4C2F4F706D2FC6010E94A5061E
:102ED0001ECEDF91CF911F910F91FF90EF90DF9069
:102EE000CF90BF9008950F931F93CF93DF93EC0182
:102EF0008B819C81892B29F08881998189238F3F3F
:102F000029F4DF91CF911F910F910895CE010E9476
:102F100061068823B1F3688179818A810E94331D1B
:102F20008C010E94921C0E94741BB801CE01DF919B
:102F3000CF911F910F910C9427150E949C1D0E9408
:102F4000AC1D0E94C81D0E9486230E94E42290E0CE
:102F500080E00E94051390E080E00C941B130E9417
:102F6000651D0C949D170E948C1D0C94AF17E92FC2
:102F7000E295EF70E250EE3070F4F0E0E455F44D7D
:102F80000C94182B803F19F020F4883E20F481E047
:102F90000895843FE1F380E00895883EC0F3813FC7
:102FA000D1F7F5CF93FB882780F908950E94291D5A
:102FB0000C94B717CF93DF9300D000D00F92CDB70A
:102FC000DEB70F900F900F900F900F90DF91CF9181
:102FD0000895CF93DF9300D000D000D0CDB7DEB7F7
:102FE00026960FB6F894DEBF0FBECDBFDF91CF910E
:102FF00008951F93CF93DF93C091F80116E080915D
:10300000F9018C1304C0DF91CF911F910895D0E096
:103010001C9FF0011D9FF00D1124E650FE4F4081D2
:10302000518162817381848195810E94E917219683
:10303000C770E5CF40912A0250912B0260912C027B
:1030400070912D0280912E0290912F020C94E9171D
:103050001F93CF93DF9380912F02807FC1F48091E3
:103060002C028823A1F08091F801C091F9016091B0
:103070002A0270912B0240912D0250912E02D62FE0
:10308000D723DA01A095B09516E0C81304C0DF91EC
:10309000CF911F91089590E04115510511F0DF3F48
:1030A00031F401968770F1CF2A0F3B1F17C0189F8C
:1030B000F001199FF00D1124E650FE4F21812713D6
:1030C000F0CF20812613EDCF22812111EACF238179
:1030D00034812417350740F3241B350B283C310578
:1030E00000F720912F022F70206120932F0226E0FD
:1030F000289FF001299FF00D1124E150FE4F80819F
:103100008F70806180838AE292E00E947317DF9162
:10311000CF911F910C94F917BF92CF92DF92EF924B
:10312000FF920F931F93CF93DF93CDB7DEB76197D5
:103130000FB6F894DEBF0FBECDBF8C0185E0F8015D
:10314000DE011D9601900D928A95E1F7D8014C9110
:1031500011965C9111971296EC90129780912D0226
:1031600090912E02009709F47FC120912A0230919C
:103170002B02622F63236F3F09F476C11396CD9023
:10318000DC90B0902C02BB2009F411C1C816D906FE
:10319000D0F1F601E81BF90BCF01FF24F394883C32
:1031A000910508F0F12C80912F02982F907FFF203D
:1031B00009F4B8C091117FC0FE2C351329C0241327
:1031C00027C0E11025C08F70806180932F020E947C
:1031D0001A188AE292E00E94731780912F02D80198
:1031E00015968C938F2D61960FB6F894DEBF0FBEA7
:1031F000CDBFDF91CF911F910F91FF90EF90DF90A6
:10320000CF90BF900895809590958C0D9D1DC5CF52
:10321000CD2829F0852F84238F3F09F041C180E01C
:10322000B82FB170DB2E80FF3CC08091F801209157
:10323000F90136E0821315C04D875E878D859E8526
:103240000E94291D292F22952F702230F0F0243062
:1032500018F59F70F1F0F8019581907FD1F4D12C91
:103260001EC090E0389FF001399FF00D1124E65008
:10327000FE4F6181651306C06081641303C06281E3
:10328000E6120FC001968770D5CF9F7011F088238A
:1032900031F3805E883018F3C8010E947317FD2C4B
:1032A000A1CFEE2009F49ECF80912F028160809300
:1032B0002F02F12C97CF351306C0241304C0D80178
:1032C000EE2009F49AC04D875E878D859E850E9409
:1032D000D617882319F1EE2009F180912F02803250
:1032E00070F020912A0230912B0238872F831986A3
:1032F000DB86CA868C87CE0107960E94731786E00C
:10330000F801AAE2B2E001900D928A95E1F70E94DD
:1033100028180E941A18FF24F39464CFC8010E9451
:103320007317F9CF911113C07C2DD98AC88A6E2DDD
:1033300089890E94DA178AE292E00E94731786E078
:10334000EAE2F2E0DF011D928A95E9F763C03513E6
:1033500012C0241310C0E1100EC0F8018583C8010B
:103360000E947317EAE2F2E086E0DF011D928A957F
:10337000E9F7FB2C37CF4D875E878D859E850E94B0
:10338000D617882359F2EE2049F280912F0280321D
:1033900008F4B5CF20912A0230912B023A83298379
:1033A0001B82DD82CC828E83CE010196A6CFC81609
:1033B000D90698F1F601E81BF90BCF01F12C883CF6
:1033C000910508F049C0FE2CEE2009F4A7CF351373
:1033D00032C0241330C080912F0280FD23C0982F6B
:1033E000907F01F1D80115968C931597903F39F095
:1033F000982F907F905F8F70892B15968C93C801C2
:103400000E94731786E0F801AAE2B2E001900D92E3
:103410008A95E1F70E941A18E5CE809590958C0D5B
:103420009D1DCCCF86E0F801AAE2B2E001900D929A
:103430008A95E1F7D7CE4D875E878D859E850E9460
:10344000D61781115CCF80912F02816080932F026B
:10345000C8010E947317C6CE7C2DD98AC88A6E2DEA
:1034600089890E94DA176BCFEE2009F457CF4D8778
:103470005E878D859E850E94D617F82E882309F4D5
:103480004DCF86E0F801AAE2B2E001900D928A9554
:10349000E1F78AE292E00E942F140E942818BACF26
:1034A00081E08E25BDCE1F93CF93DF93CDB7DEB7DE
:1034B0002C970FB6F894DEBF0FBECDBF4F83588751
:1034C00069877A878B879C87CE0107960E948C1824
:1034D000882369F08A859B85892B39F04F8158852F
:1034E000842F85238F3F09F071C016E05FC086E00E
:1034F000FE013796DE01119601900D928A95E1F753
:103500008A859B85892B89F388859F8189238F3FB5
:1035100061F32091F90130E0C90101968770992784
:103520004091F8014817190671F40E94B3171092E0
:10353000F9011092F80186E0EAE2F2E0DF011D9263
:103540008A95E9F7D2CF96E0929FD001939FB00D74
:103550001124A650BE4FFE01319601900D929A950E
:10356000E1F78093F9010E94F917BFCF819FC00155
:10357000112486509E4F0E948C188823E9F0E09118
:10358000F8011E9FF0011124E650FE4F4081518149
:1035900062817381848195810E94E9178091F8018D
:1035A00090E00196877099278093F8018091F80147
:1035B0009091F9018913DACF2C960FB6F894DEBFFB
:1035C0000FBECDBFDF91CF911F91089569857A8598
:1035D0008B859C850E94E91788CFEF92FF920F930D
:1035E0001F93CF93DF938C01892B81F0F12CEE2474
:1035F000E394E8012196F8018491843770F48430D3
:1036000008F05FC08130B1F08230A1F1DF91CF913D
:103610001F910F91FF90EF900895853709F44CC0EA
:1036200008F43DC09CE7980F903780F78F770E9491
:10363000B01449C00E5F1F4FFE01849190E2980FB5
:10364000983060F48770FE2D01C0FF0F8A95EAF76D
:103650008F2F0E949F1D0E94C81D02C00E9434141B
:103660008F2D815030F2EFE9FFE03197F1F700C084
:103670000000F7CF0E5F1F4FFE01849190E2980F7C
:10368000983050F48770FE2D01C0FF0F8A95EAF73D
:103690008F2F0E94A51DDFCF0E94B014E1CF0E5FD7
:1036A0001F4FFE01C491C150D8F28FE99FE00197EE
:1036B000F1F700C00000F7CF0E5F1F4FFE01F4903E
:1036C000CFCF0E9434148E01CBCF08950C94651B8C
:1036D0000E94661B60936102709362028093630292
:1036E000909364020C949D1708950C94681B0F939B
:1036F0001F93009161021091620220916302309148
:103700006402602B712B822B932B1F910F910C94D1
:10371000681B0F931F930091610210916202209128
:1037200063023091640260237123822393231F91EB
:103730000F910C94681B0F931F93009161021091DD
:103740006202209163023091640260277127822710
:1037500093271F910F910C94681B0C94651B0C947C
:10376000AD1B0E94AF1B60935D0270935E0280935D
:103770005F02909360020C949D1760E070E0CB01B3
:103780000C94B11B611571058105910529F481E047
:10379000442361F080E00895DC01CB0104C0B695BC
:1037A000A795979587954A95D2F781700895482FE8
:1037B00060915D0270915E0280915F029091600263
:1037C0000C94C21B0F931F9341E050E060E070E047
:1037D0008A019B0104C0000F111F221F331F8A950D
:1037E000D2F7C901B8011F910F910C94B11B0F932F
:1037F0001F9341E050E060E070E004C0440F551FAB
:10380000661F771F8A95D2F780915D0290915E02C4
:10381000A0915F02B09160028A019B01082B192BD5
:103820002A2B3B2BC901B8011F910F910C94B11B9E
:103830000F931F9341E050E060E070E004C0440F3C
:10384000551F661F771F8A95D2F7CB01BA01609585
:1038500070958095909500915D0210915E02209187
:103860005F023091600260237123822393231F91B2
:103870000F910C94B11B0F931F9341E050E060E057
:1038800070E004C0440F551F661F771F8A95D2F75A
:1038900080915D0290915E02A0915F02B091600202
:1038A0008A019B01082719272A273B27C901B8014C
:1038B0001F910F910C94B11B0F931F9300915D0208
:1038C00010915E0220915F0230916002602B712B9B
:1038D000822B932B1F910F910C94B11B0F931F936D
:1038E00000915D0210915E0220915F0230916002B2
:1038F00060237123822393231F910F910C94B11B9A
:103900000F931F9300915D0210915E0220915F0260
:103910003091600260277127822793271F910F91B2
:103920000C94B11B08952EE0929F800D1124982FC6
:10393000977041E001C0440F9A95EAF78695869505
:10394000869595E0899FF0011124E05DFD4F90E0A0
:1039500080E070E05191DF0111979B01082E02C0B9
:10396000369527950A94E2F721702195252724237F
:1039700025272C9301968530910561F708952EE057
:10398000929F800D1124982F977086958695869525
:1039900025E0829FF0011124E05DFD4F50E040E002
:1039A00080E0219130E0092E02C0369527950A94D7
:1039B000E2F721703327042E01C0220F0A94EAF7A0
:1039C000822B4F5F5F4F4530510559F70895BF92E5
:1039D000CF92DF92EF92FF920F931F93CF93DF93DB
:1039E0008C01C0905D02D0905E02E0905F02F0908A
:1039F00060028091610290916202A0916302B09195
:103A00006402C82AD92AEA2AFB2ACFE1D0E0BC2ED8
:103A1000D701C6010C2E04C0B695A795979587953A
:103A20000A94D2F780FD0EC0219788F7B12C8B2D18
:103A3000DF91CF911F910F91FF90EF90DF90CF908A
:103A4000BF900895B8018C2F0E94C206019761F3C0
:103A5000EECFCF93DF93EC010E94E71CBE01DF9114
:103A6000CF910C94C2061F93CF93DF93EB019091FB
:103A7000F701992331F0CB01DF91CF911F910C9485
:103A8000291D882379F0CB010E94E71C182F682F8D
:103A9000CE010E94931CBE01812FDF91CF911F9117
:103AA0000C94C206CB010E94BF1C182FF4CF682FC4
:103AB00080911001909111010C943D1F682F80910D
:103AC0001001909111010C94481F80911001909168
:103AD00011010C94531F80916502859585958595FC
:103AE000089580916502877008959091650297709E
:103AF00081E009F480E00895809189020895909111
:103B00008902892B8093890208958095909189027A
:103B100098239093890208951092890208959091B4
:103B20008802892B8093880208958095909188025D
:103B30009823909388020895109288020895909196
:103B40008702892B80938702089580959091870240
:103B50009823909387020895109287020895809188
:103B60006602089508950C94B21D9091660298170C
:103B700021F0809366020C94B31D08958091660233
:103B8000882329F01092660280E00C94B31D0895FA
:103B9000E0911001F0911101809189028083E09100
:103BA0001001F0911101808190918802892B80830E
:103BB000E0911001F0911101808190918702892B91
:103BC000808390916602992381F0E0911001F09139
:103BD00011018081892B80838091100190911101C6
:103BE0000E94D91E81110E94BE1D809110019091EA
:103BF00011010C94DD1208950C94FB1D98E0899F2F
:103C000090011124622B609365020E94F71B809142
:103C100065028595859585950C94FC1D109265022D
:103C200080E00C94FC1D909165028095892380931F
:103C30006502282F277071F4282F082E000C330BF3
:103C40009217130639F08595859585950E94181C65
:103C50000C940E1E089590E080E00E94452B21E018
:103C60008C3E9E4F09F020E0822F089582E090E084
:103C70000C94372B682F82E090E00C944B2B83E060
:103C800090E00C94372B682F83E090E00C944B2B42
:103C9000CF9384E090E00E94372BC82F81E290E020
:103CA0000E94372B982F8C2FCF910895CF93C92F37
:103CB000682F84E090E00E944B2B6C2F81E290E013
:103CC000CF910C944B2BAB01BC018FE090E00C9496
:103CD0005D2BAB01BC0183E190E00C945D2B60E0B7
:103CE00070E0CB010C94691E60E070E0CB010E9493
:103CF000631E0C946F1E6CEE7EEF90E080E00E94DD
:103D0000692B60E082E090E00E944B2B60E083E052
:103D100090E00E944B2B109261021092620210926E
:103D200063021092640260E084E090E00E944B2BFA
:103D300060E081E290E00E944B2B60E085E090E043
:103D40000E944B2B60E086E090E00E944B2B6FEFCF
:103D500087E090E00E944B2B40E050E0BA0188E001
:103D600090E00E945D2B60E08DE090E00E944B2B84
:103D700040E050E0BA0188E190E00E945D2B60E0F5
:103D800087E190E00E944B2B40E050E0BA018CE1CB
:103D900090E00E945D2B60E080E290E00E944B2B5F
:103DA0000C94741E0C947B1E682F8EE090E00C9493
:103DB0004B2BFC01329680912201882321F08091C7
:103DC0002D039EE187FF96E080E0915008F408956E
:103DD00021912223D1F38F5FF8CF9C01FC01329611
:103DE0009FEF80E04191461751F09F3F19F4411138
:103DF00001C0982F8F5F8630A9F79F3F09F408957F
:103E0000290F311D97FD3A95F90162830895FC0150
:103E1000329608962191261303C0DF0111971C9258
:103E2000E817F907B9F70895E62FE695E695E695C0
:103E3000EE3168F4E80FF92FF11D677021E030E0F2
:103E400001C0220F6A95EAF78281822B828308954E
:103E5000E62FE695E695E695EE3170F4E80FF92F3A
:103E6000F11D677021E030E001C0220F6A95EAF78A
:103E700020958281282322830895209122012223E4
:103E800029F020912D0327FD0C94141F0C94ED1E96
:103E900020912201222329F020912D0327FD0C944B
:103EA000281F0C94071FFC01329680912201882361
:103EB00051F080912D0387FF06C08EE1DF011D9236
:103EC0008A95E9F7089586E0F9CF089508950C944E
:103ED000661F0C94671F0895CF930E94651F0E9470
:103EE00027090E946B1FC0E08C2F0E94B508892B08
:103EF00031F4CF5FC530C1F780E0CF91089581E004
:103F0000FCCF08950C94811F0E94B3170E94D11218
:103F10000E9449060E94660E0C94821F82E084BDB6
:103F200093E095BD9AEF97BD80936E0008952FB7EB
:103F3000F8948091290390912A03A0912B03B091CA
:103F40002C032FBF0895CF92DF92EF92FF920F9331
:103F50001F932FB7F8944091290350912A03609141
:103F60002B0370912C032FBF6A017B01EE24FF24E9
:103F70008C0130E020E0C016D106E206F30650F0D6
:103F8000481B590BCA011F910F91FF90EF90DF90D2
:103F9000CF90089541505109F3CF78941F921FB6E6
:103FA0001F9211248F939F93AF93BF938091290306
:103FB00090912A03A0912B03B0912C030196A11D8F
:103FC000B11D8093290390932A03A0932B03B093F0
:103FD0002C03BF91AF919F918F911F901FBE1F9097
:103FE000189581E08093E00080E28093D8001092E1
:103FF000C9008FE19EE40197F1F700C0000087E05F
:1040000090EBDC0180933C0390933D03A0933E032F
:10401000B0933F0388E19CE00FB6F894A895809395
:1040200060000FBE90936000FFCFAF92BF92CF921F
:10403000DF92EF92FF920F931F93CF93C0E0CC24B7
:10404000C394D12CE82EF12C8C2F0E94B5085C0172
:1040500010E000E0C601002E02C0880F991F0A94EC
:10406000E2F78A219B21892B99F40F5F1F4F0E30B5
:10407000110581F7CF5FC53039F780E0CF911F91EF
:104080000F91FF90EF90DF90CF90BF90AF90089589
:10409000602F7C2F80E00E94A606E816F90629F71B
:1040A00081E0ECCFCF93C82F8CE20E9415208823AB
:1040B00021F08C2FCF910C94152080E0CF910895A2
:1040C000CF930E942B1E811102C00E94D21EC5E612
:1040D00008C00E9427098FE39CE90197F1F700C00F
:1040E0000000C150B1F789E20E945220811100C145
:1040F0008AE20E94522081110E94D21E85E00E9415
:10410000522081110E94F11F0E94361E80938A0264
:1041100087E00E945220882371F08BE10E94522098
:10412000882309F4C2C090918A02892F8D7F91FF64
:10413000826080938A0280918A020E943A1E0E94C5
:10414000481E90932E0380932D0380EE0E945220F0
:10415000882341F090912D03892F8E7F90FF8160FD
:1041600080932D0389E30E945220882341F090918F
:104170002D03892F8D7F91FF826080932D0382EE26
:104180000E945220882341F090912D03892F8B7F2C
:1041900092FF846080932D0386EE0E945220882334
:1041A00041F090912D03892F877F93FF8860809342
:1041B0002D0383EE0E945220882341F090912D031D
:1041C000892F8F7E94FF806180932D0385E30E9469
:1041D0005220882341F090912D03892F8F7D95FFE8
:1041E000806280932D0381E30E945220882341F056
:1041F00090912D03892F8F7B96FF806480932D03F0
:1042000081E10E945220882341F090912D03892F53
:1042100097FB87F9805880932D0380912D0390910F
:104220002E030E94561E87E20E945220C82F8EE164
:104230000E9452208111C2608FE10E9452208111A0
:10424000C46080E20E9452208111C86081E20E9415
:1042500052208111C06182E20E9452208111C0620D
:1042600083E20E9452208111C06484E20E945220A5
:104270008823C1F1C0688C2F0E94431E6C2F70E010
:1042800090E080E00E94751B8FE00E9452208823FE
:1042900019F081E00E94D41E85E10E9452208823FB
:1042A00039F180E0CF910C94D41E8EE00E94522010
:1042B000882339F090918A02892F8B7F92FF846046
:1042C00038CF80E10E94522090918A02882329F001
:1042D000892F877F93FF88602CCF892F8E7F90FF57
:1042E000816027CFC111C7CF0E943F1E682FC7CF63
:1042F000CF91089580918E0280FF12C060911501C8
:1043000085E0689FB001112475956795759567954F
:1043100060387105A8F561157105A1F1862F089522
:1043200081FF09C06091150185E0689FB0011124EB
:1043300075956795EDCF6091150182FD0AC080915A
:104340008D028823D1F09091140160911501891795
:1043500028F085E0689FB0011124DACF869FB00174
:10436000112485E0869F9001879F300D1124692FCD
:1043700070E0C9010E94042BCBCF65E070E0CECF86
:104380008FE7089581E0089580918E0280FF0CC030
:104390006091130170E07595679575956795611546
:1043A000710549F1862F089581FF06C060911301C0
:1043B00070E075956795F3CF6091130182FD0BC096
:1043C00090918D029923A1F06091120180911301C7
:1043D000961738F0682F70E06038710500F38FE7AA
:1043E0000895899FC001112470E00E94042BF4CF2E
:1043F00061E070E0D7CF81E00895803F31F40E9402
:104400007A218195809392020895813F19F40E9448
:104410007A21F8CF823F31F40E947A2181958093EE
:1044200091020895833F19F40E947A21F8CF893FC1
:1044300029F40E94C4218093930208958A3F21F4B5
:104440000E94C4218195F7CF8B3F31F40E94C42193
:1044500081958093940208958C3F19F40E94C421A1
:10446000F8CF843F31F48091900281608093900274
:104470000895853F21F4809190028260F7CF863FB6
:1044800021F4809190028460F1CF873F21F48091E4
:1044900090028860EBCF883F21F480919002806188
:1044A000E5CF8D3F31F480918E02816080938E0242
:1044B00008958E3F21F480918E028260F7CF8F3F66
:1044C000B9F780918E028460F1CF90919102803F84
:1044D00041F48091920287FD10929202992371F02B
:1044E0000895813F29F4809192021816ACF3F6CF1B
:1044F000823F81F497FFF2CF109291028091920255
:1045000090919302892B90919402892B49F71092F4
:104510008D020895833F19F4191674F3DFCF893F94
:1045200039F4809193021816CCF610929302D6CFEC
:104530008A3F29F48091930287FFD0CFF6CF8B3F3B
:1045400039F48091940287FFC9CF10929402C6CFAC
:104550008C3F29F4809194021816BCF3BFCF843F9E
:1045600031F4809190028E7F80939002B7CF853F87
:1045700021F4809190028D7FF7CF863F21F48091C6
:1045800090028B7FF1CF873F21F480919002877F4B
:10459000EBCF883F21F4809190028F7EE5CF8D3F55
:1045A00031F480918E028E7F80938E0297CF8E3F62
:1045B00021F480918E028D7FF7CF8F3F09F08ECF4F
:1045C00080918E028B7FF0CF8FE892E00E94F712ED
:1045D0000E94971F90938C0280938B0208951F93E3
:1045E000CF93DF9380918B0290918C020E94A31F46
:1045F000AC0190918D022091160130E0911106C01E
:10460000209117018AE0289F900111244217530737
:1046100078F020919102C0919202D0919302109172
:104620009402211109C08C2F8D2B812B09F06AC0B7
:10463000DF91CF911F9108959F3F19F09F5F909355
:104640008D02121624F40E947A21809391028091A7
:10465000910287FF05C00E947A2181958093910283
:104660001C1624F40E947A21809392028091920277
:1046700087FF05C00E947A21819580939202309134
:1046800091023323A1F020919202222381F045EB85
:104690003403C0011124992369F19093910245EBF1
:1046A000240390011124332349F1309392021D1603
:1046B00024F40E94C421809393028091930287FF87
:1046C00005C00E94C421819580939302111624F4A1
:1046D0000E94C421809394028091940287FF05C0B8
:1046E0000E94C421819580939402DF91CF911F9104
:1046F0000C94E42281E080939102D1CF81E08093F9
:104700009202D5CF9F3F09F099CFAACF86E0EFE87C
:10471000F2E0DF011D928A95E9F710928D02109266
:104720008E020895E1E8F0E08081886080838081D6
:10473000816080838FB7F89493E09093890090ED27
:10474000909388008FBF0895EFE6F0E0808182604B
:1047500080830895EFE6F0E080818D7F8083089567
:104760001F920F920FB60F9211242F933F934F93E6
:104770005F936F937F938F939F93AF93BF93EF93C9
:10478000FF938091950290919602019690939602E4
:1047900080939502811103C082E00E944906E09156
:1047A0009602E695E695F0E0EB51F84FE4918091A2
:1047B00095028E1303C080E00E944906FF91EF919D
:1047C000BF91AF919F918F917F916F915F914F9129
:1047D0003F912F910F900FBE0F901F9018958091D1
:1047E000B7020895CF93DF9300D00F92CDB7DEB715
:1047F00090913303943019F589837B836A8382E037
:104800008093E9008FEF9091E800815095FD06C0FC
:1048100095ED9A95F1F700008111F5CF8091E800B0
:1048200085FF0DC050E040E063E070E0CE010196EE
:104830000E9451268091E8008E778093E8000F90C7
:104840000F900F90DF91CF910895CF93DF93EC01FC
:104850000E943426823011F0843031F4BE0184E0AD
:10486000DF91CF910C94F223DF91CF910895BC0199
:104870006058710983E00C94F223CF93DF93EC012D
:104880000E943426823011F08430F9F482E0809363
:10489000E9008FEF9091E800815095FD06C095EDFD
:1048A0009A95F1F700008111F5CF8091E80085FF1E
:1048B0000CC050E040E066E070E0CE010E9451265E
:1048C0008091E8008E778093E800DF91CF91089582
:1048D000CF93DF93EC010E943426823011F08430B4
:1048E000B9F5809122018823B1F180912D0387FFD2
:1048F00032C060E282E08093E9008FEF9091E8009F
:10490000815095FD06C095ED9A95F1F70000811153
:10491000F5CF8091E80085FF1BC08091220170E0F7
:1049200050E040E0811104C050E040E068E070E0F9
:10493000CE010E9451268091E8008E778093E80096
:1049400080E2FE01A7E9B2E001900D928A95E1F7BD
:10495000DF91CF91089568E081E0CDCF809132035F
:10496000811109C00E94E1270E943E288091E20047
:1049700084608093E20008951092320308950895B0
:104980000C94A4230E94841F0E94AA230E94D11287
:104990000C94490642E061EC81E00E945D2742E20E
:1049A00061EC82E00C945D2780913503833009F43B
:1049B0005FC030F48130C1F1823009F49BC00895AA
:1049C0008A3009F487C08B3009F46DC0893009F052
:1049D0004EC080913403813209F049C08091380380
:1049E00090913903029708F042C08091E800877FD8
:1049F0008093E8008091E80082FF35C09091F30039
:104A00008091F200029729F48091F1008B7F813030
:104A100021F48091F1008093B7028091E8008B77B8
:104A20008093E8000C94912780913403813AF9F443
:104A30008091E800877F8093E8008091380390910F
:104A40003903892B61F460E287E992E070E00E940B
:104A5000A0268091E8008B778093E800089560E0BD
:104A600090E080E0F3CF809133038111C3CF0895AC
:104A700080913403813AD9F78091380390913903BA
:104A8000892BA9F78091E800877F8093E8008091C7
:104A9000E80080FFFCCF809122018093F10080919B
:104AA000E8008E77BDCF80913403813201F7809189
:104AB000380390913903892BD1F68091E800877FE4
:104AC0008093E8000E949127809136038093220111
:104AD0000C94B31780913403813249F68091E80039
:104AE000877F8093E8000E9491278091370380930D
:104AF000B802089580913403813A09F0B8CF8091CB
:104B0000E800877F8093E8008091E80080FFFCCF79
:104B10008091B802C2CF84B7877F84BF0FB6F89464
:104B2000A895809160008861809360001092600079
:104B30000FBE80E890E00FB6F894809361009093E8
:104B400061000FBE0E943F130E94E1270E943E2891
:104B50008091E20084608093E20078940E94C72AEA
:104B60000E94471388E191E00E94CC120E94922398
:104B700080913303853019F00E945113F9CF0E94C0
:104B8000691F80913103882399F30E946C1F882349
:104B900079F30E943B26ECCF0C94CE25292F3327A6
:104BA0002330310519F168F42130310509F44AC088
:104BB0002230310509F44BC090E080E030E020E085
:104BC00028C02132310579F122323105A9F780E47C
:104BD00090E026E639E061157105D9F080EC90E0AF
:104BE00026EA38E061307105A1F0E6CF99278130DF
:104BF000910599F0009741F08230910589F0039773
:104C0000D9F6E5E2F8E002C0E5E5F8E0849190E04D
:104C10009F01FA01318320830895EFE3F8E0F6CF96
:104C2000EBE2F8E0F3CF89E090E02BE638E06115A5
:104C3000710579F389E090E024E838E0613071058E
:104C400041F3BACF82E190E024E938E0E2CF8BE390
:104C500090E029E538E0DDCF80913303843011F412
:104C600082E0089581E008958091B902811102C027
:104C70000C942C26089580E189BD82E189BD09B498
:104C800000FEFDCF8091D8008F7D8093D800809169
:104C9000E00082608093E0008091E00081FDFCCF25
:104CA0000895AF92BF92CF92DF92FF920F931F931E
:104CB000CF93DF936C01EB018A010E94B027F82E9D
:104CC000811123C00115110539F0F801808191810E
:104CD000C81BD90BC80ED91EB12CA12C2097A9F046
:104CE0008091E80085FD22C08091E8008E77809356
:104CF000E80001151105A1F0F80180819181A80E4D
:104D0000B91EB182A08285E0F82E8F2DDF91CF9160
:104D10001F910F91FF90DF90CF90BF90AF900895BB
:104D20000E94B0278823D1F2F82EEFCFF6018191AF
:104D30006F018093F1002197FFEFAF1ABF0ACECF2A
:104D4000FC0180913A0390913B0386179707A0F0EE
:104D50006115710529F49091E8009E779093E80021
:104D600090E06115710551F4911108C08091E8003F
:104D700082FF34C080E00895BC01F2CF80913303FC
:104D80008823C1F18530C1F18091E80083FD30C0F6
:104D90008091E80082FDEACF8091E80080FFE1CFBA
:104DA0008091F3002091F200382F6115710519F000
:104DB0002830310558F091E02830310509F090E0B5
:104DC0002091E8002E772093E800CBCF819180934B
:104DD000F100615071092F5F3F4FE7CF809133039E
:104DE000882341F0853041F08091E80083FFBECFF9
:104DF00081E0089582E0089583E00895FC018091A8
:104E00003A0390913B0386179707A0F0611571054F
:104E100029F48091E8008E778093E80090E0611596
:104E2000710551F4911108C08091E80082FF35C0EE
:104E300080E00895BC01F2CF809133038823C9F14B
:104E40008530C9F18091E80083FD31C08091E80090
:104E500082FDEACF8091E80080FFE1CF8091F300EE
:104E60002091F200382F6115710519F028303105B5
:104E700058F091E02830310509F090E08091E80089
:104E80008E778093E800CBCF84918093F1003196A8
:104E9000615071092F5F3F4FE6CF80913303882324
:104EA00041F0853041F08091E80083FFBDCF81E083
:104EB000089582E0089583E00895982F973028F0B0
:104EC0008F708093E90081E008959093E900242F8A
:104ED000762F50E0981731F07091EC002091ED00A2
:104EE0005091F00021FD02C09F5FE8CF3091EB00B0
:104EF0003E7F3093EB003091ED003D7F3093ED002D
:104F00003091EB0031603093EB007093EC00209314
:104F1000ED005093F0002091EE0027FDE5CF80E0FA
:104F200008958091340387FF13C08091E80082FFC9
:104F300006C08091E8008B778093E80004C08091E0
:104F400033038111F2CF0895809133038823D9F37D
:104F50008091E80080FFF8CF8091E8008E77ECCF59
:104F60002091E4003091E50095E6A9012091EC0044
:104F7000822F817020FF06C08091E80080FF06C06C
:104F800080E008952091E80022FD1AC0809133034B
:104F9000882389F0853089F08091EB0085FD0FC072
:104FA0002091E4003091E50042175307F9F2915047
:104FB000E1F684E0089582E0089583E0089581E0B9
:104FC00008950E944F280E945728E0EEF0E080816B
:104FD00081608083E8EDF0E080818F77808319BC69
:104FE000A7EDB0E08C918E7F8C9380818F7E808343
:104FF0001092320308950F931F93CF93DF930E9473
:105000004F280E945728C8EDD0E088818F77888389
:1050100088818068888388818F7D888319BC1092FD
:10502000330310922F03109231031092300300EEDD
:1050300010E0F80180818B7F808388818160888384
:1050400042E060E080E00E945D27E1EEF0E08081D8
:105050008E7F8083E2EEF0E08081816080838081BA
:1050600088608083F80180818E7F80838881806161
:105070008883DF91CF911F910F910895E8EDF0E0C3
:1050800080818F7E8083E7EDF0E080818160808386
:1050900084E082BF81E0809332030C94FB27E8ED2B
:1050A000F0E080818E7F80831092E200089510925C
:1050B000DA001092E10008951F920F920FB60F923E
:1050C00011242F933F934F935F936F937F938F930D
:1050D0009F93AF93BF93EF93FF938091E10082FF83
:1050E0000BC08091E20082FF07C08091E1008B7FBE
:1050F0008093E1000E94C62A8091DA0080FF19C0E7
:105100008091D80080FF15C08091DA008E7F809357
:10511000DA008091D90080FF96C080E189BD82E1EC
:1051200089BD09B400FEFDCF81E0809333030E9466
:10513000AE248091E10080FF19C08091E20080FFE1
:1051400015C08091E2008E7F8093E2008091E200A2
:1051500080618093E2008091D80080628093D800C3
:1051600019BC85E0809333030E94C0248091E10044
:1051700084FF2BC08091E20084FF27C080E189BDBD
:1051800082E189BD89B5982F917080FFFBCF809116
:10519000D8008F7D8093D8008091E1008F7E80932E
:1051A000E1008091E2008F7E8093E2008091E20036
:1051B00081608093E20080912F03882309F449C025
:1051C00084E0809333030E94C2248091E10083FF36
:1051D00029C08091E20083FF25C08091E100877F94
:1051E0008093E10082E08093330310922F0380913B
:1051F000E1008E7F8093E1008091E2008E7F8093BA
:10520000E2008091E20080618093E20042E060E091
:1052100080E00E945D278091F00088608093F0001C
:105220000E94BF24FF91EF91BF91AF919F918F9109
:105230007F916F915F914F913F912F910F900FBE92
:105240000F901F90189519BC109233030E94BC2434
:1052500070CF8091E30087FD93E090933303B3CF49
:105260001F920F920FB60F9211242F933F934F93DB
:105270005F936F937F938F939F93AF93BF93CF93DE
:10528000DF93EF93FF93D091E900DF708091EC0002
:10529000C82FC17080FDC0E81092E9008091F00035
:1052A000877F8093F00078940E9474291092E9001F
:1052B0008091F00088608093F000CD2BCF70C09378
:1052C000E900FF91EF91DF91CF91BF91AF919F9155
:1052D0008F917F916F915F914F913F912F910F909F
:1052E0000FBE0F901F9018951F93CF93DF93CDB7EC
:1052F000DEB7AA970FB6F894DEBF0FBECDBF84E32A
:1053000093E02091F100FC012193CF01F3E08C3375
:105310009F07B9F70E94D4248091E80083FF1EC143
:1053200080913403909135039A3008F017C1E92F2A
:10533000F0E0E654F44D0C94182B803899F0823844
:1053400009F00CC1809138038F70873008F006C1D6
:105350008093E9008091EB0085FB882780F910920B
:10536000E90006C080913003909131039111826071
:105370009091E800977F9093E8008093F10010925D
:10538000F1008091E8008E77E5C0882309F4D3C04E
:10539000823009F0E3C0809136038111D6C080913C
:1053A00038038F702FEF280F263008F0D7C0809376
:1053B000E9002091EB0020FFC8C0933031F48091C8
:1053C000EB0080628093EB00C0C09091EB00906195
:1053D0009093EB0021E030E001C0220F8A95EAF7BC
:1053E0002093EA001092EA008091EB008860EACFF7
:1053F0008111B4C0109136031F778091E30080784B
:10540000812B8093E3008091E800877F8093E80000
:105410000E9491278091E80080FFFCCF8091E300FB
:1054200080688093E30082E0111183E0809333036E
:1054300095C08058823008F091C0809136039091D9
:1054400037038C3D23E09207A1F583E08A838AE24B
:1054500089834FB7F894DE01139620E03EE051E2D5
:10546000E32FF0E050935700E49120FF03C0E29552
:10547000EF703F5FEF708E2F90E0EA30C0F0C7967C
:105480008D939D932F5F243159F74FBF8091E80092
:10549000877F8093E8006AE270E0CE0101960E9467
:1054A000A0268091E8008B778093E80057C0C096D3
:1054B000E7CF6091380370913903AE014F5F5F4FC2
:1054C0000E94CC25BC01892B09F448C09091E800CA
:1054D000977F9093E80089819A810E94FE26E1CF10
:1054E0008038E1F58091E800877F8093E800809123
:1054F0002F038093F10045CF811130C09091360386
:10550000923060F58091E800877F8093E800909367
:105510002F030E94912780912F03882311F084E0AC
:1055200005C08091E30087FDFACF81E080933303CB
:105530000E94CA2413C080913603813079F481E03F
:10554000933009F080E0809331031092E90080915C
:10555000E800877F8093E8000E9491278091E8000F
:1055600083FF0AC08091E800877F8093E8008091E4
:10557000EB0080628093EB00AA960FB6F894DEBF32
:105580000FBECDBFDF91CF911F9108950895CF93A6
:10559000809133038823A1F0C091E900CF709091EE
:1055A000EC00892F817090FD80E8C82B1092E900F3
:1055B0008091E80083FD0E947429CF70C093E900B8
:1055C000CF91089587FB082E062687FD819567FDFC
:1055D00061950E941E2B0EF4919507FC819508950C
:1055E000AA1BBB1B51E107C0AA1FBB1FA617B70709
:1055F00010F0A61BB70B881F991F5A95A9F7809525
:105600009095BC01CD01089597FB072E16F40094E8
:1056100007D077FD09D00E94F02A07FC05D03EF4A0
:10562000909581959F4F0895709561957F4F08954E
:10563000EE0FFF1F0590F491E02D0994991B79E07E
:1056400004C0991F961708F0961B881F7A95C9F712
:1056500080950895FC014150504030F001900616AD
:10566000D1F73197CF010895882799270895F9999F
:10567000FECF92BD81BDF89A992780B50895A6E125
:10568000B0E044E050E00C94712BA8E1B0E042E0BF
:1056900050E00C94712B262FF999FECF92BD81BD5D
:1056A000F89A019700B4021639F01FBA20BD0FB660
:1056B000F894FA9AF99A0FBE08950396272F0E943C
:1056C0004C2B0E944B2B252F0E944C2B242F0C94EB
:1056D0004C2B0196272F0E944C2B0C944B2BDC015A
:1056E000CB01FC01F999FECF06C0F2BDE1BDF89AED
:1056F000319600B40D9241505040B8F70895F89497
:10570000FFCF2B054705420538053D0533054C0500
:10571000E40FEC0FF30FF80FFD0F021007100C1041
:10572000111016101B102010241029102C102F10EF
:105730003210351037103A105A155A15B215B215E5
:1057400004162016871587156216EE16FD16FD162F
:105750005917871587156217C217C217CB17CB17B2
:10576000CD17CB17CB17CB17C217C217D217CB1732
:10577000CB17D2179D29C529AE2AC529AE2AF829EB
:08578000192AAE2A702A7C2AC6
:1057880001021C1C1C01191A1B1C1D1E1F20212292
:1057980067022808140A321EEF2368243D243724A0
:1057A800252401E200E900EA00B500B600B700CD03
:1057B800008301CC008A0192019401210223022472
:1057C800022502260227022A02B300B4006F0070E5
:1057D8000081828330F4F5F6F731333236F0F16721
:1057E80095379392919094000102020202060606F0
:1057F8000909090909090F0F0F0F0F0F15151518BA
:1058080019191919191919191919232400FF01004F
:10581800010000FFFF0000010001FF00E200E900B5
:10582800EA00B500B600B700CD008301CC008A01BC
:105838009201940121022302240225022602270252
:0E5848002A02B300B4006F007000818283005A
:00000001FF
